{
    "contractName": "KittieNft",
    "abi": [
        {
            "inputs": [
                {
                    "internalType": "uint8",
                    "name": "_nftType",
                    "type": "uint8"
                },
                {
                    "internalType": "uint8",
                    "name": "_discountPercentage",
                    "type": "uint8"
                },
                {
                    "internalType": "string",
                    "name": "_newBaseURI",
                    "type": "string"
                },
                {
                    "internalType": "uint256",
                    "name": "_cost",
                    "type": "uint256"
                },
                {
                    "internalType": "uint256",
                    "name": "_maxSupply",
                    "type": "uint256"
                },
                {
                    "internalType": "string",
                    "name": "_name",
                    "type": "string"
                },
                {
                    "internalType": "string",
                    "name": "_symbol",
                    "type": "string"
                },
                {
                    "internalType": "string",
                    "name": "_initBaseURI",
                    "type": "string"
                },
                {
                    "internalType": "string",
                    "name": "_initNotRevealedUri",
                    "type": "string"
                }
            ],
            "stateMutability": "nonpayable",
            "type": "constructor"
        },
        {
            "anonymous": false,
            "inputs": [
                {
                    "indexed": true,
                    "internalType": "address",
                    "name": "owner",
                    "type": "address"
                },
                {
                    "indexed": true,
                    "internalType": "address",
                    "name": "approved",
                    "type": "address"
                },
                {
                    "indexed": true,
                    "internalType": "uint256",
                    "name": "tokenId",
                    "type": "uint256"
                }
            ],
            "name": "Approval",
            "type": "event"
        },
        {
            "anonymous": false,
            "inputs": [
                {
                    "indexed": true,
                    "internalType": "address",
                    "name": "owner",
                    "type": "address"
                },
                {
                    "indexed": true,
                    "internalType": "address",
                    "name": "operator",
                    "type": "address"
                },
                {
                    "indexed": false,
                    "internalType": "bool",
                    "name": "approved",
                    "type": "bool"
                }
            ],
            "name": "ApprovalForAll",
            "type": "event"
        },
        {
            "anonymous": false,
            "inputs": [
                {
                    "indexed": true,
                    "internalType": "address",
                    "name": "previousOwner",
                    "type": "address"
                },
                {
                    "indexed": true,
                    "internalType": "address",
                    "name": "newOwner",
                    "type": "address"
                }
            ],
            "name": "OwnershipTransferred",
            "type": "event"
        },
        {
            "anonymous": false,
            "inputs": [
                {
                    "indexed": false,
                    "internalType": "uint256",
                    "name": "tokenId",
                    "type": "uint256"
                },
                {
                    "components": [
                        {
                            "internalType": "address payable",
                            "name": "account",
                            "type": "address"
                        },
                        {
                            "internalType": "uint96",
                            "name": "value",
                            "type": "uint96"
                        }
                    ],
                    "indexed": false,
                    "internalType": "struct LibPart.Part[]",
                    "name": "royalties",
                    "type": "tuple[]"
                }
            ],
            "name": "RoyaltiesSet",
            "type": "event"
        },
        {
            "anonymous": false,
            "inputs": [
                {
                    "indexed": true,
                    "internalType": "address",
                    "name": "from",
                    "type": "address"
                },
                {
                    "indexed": true,
                    "internalType": "address",
                    "name": "to",
                    "type": "address"
                },
                {
                    "indexed": true,
                    "internalType": "uint256",
                    "name": "tokenId",
                    "type": "uint256"
                }
            ],
            "name": "Transfer",
            "type": "event"
        },
        {
            "inputs": [
                {
                    "internalType": "address",
                    "name": "to",
                    "type": "address"
                },
                {
                    "internalType": "uint256",
                    "name": "tokenId",
                    "type": "uint256"
                }
            ],
            "name": "approve",
            "outputs": [],
            "stateMutability": "nonpayable",
            "type": "function"
        },
        {
            "inputs": [
                {
                    "internalType": "address",
                    "name": "owner",
                    "type": "address"
                }
            ],
            "name": "balanceOf",
            "outputs": [
                {
                    "internalType": "uint256",
                    "name": "",
                    "type": "uint256"
                }
            ],
            "stateMutability": "view",
            "type": "function"
        },
        {
            "inputs": [],
            "name": "baseExtension",
            "outputs": [
                {
                    "internalType": "string",
                    "name": "",
                    "type": "string"
                }
            ],
            "stateMutability": "view",
            "type": "function"
        },
        {
            "inputs": [],
            "name": "baseURI",
            "outputs": [
                {
                    "internalType": "string",
                    "name": "",
                    "type": "string"
                }
            ],
            "stateMutability": "view",
            "type": "function"
        },
        {
            "inputs": [
                {
                    "internalType": "address",
                    "name": "account",
                    "type": "address"
                },
                {
                    "internalType": "uint256",
                    "name": "_mintAmount",
                    "type": "uint256"
                },
                {
                    "internalType": "bytes32[]",
                    "name": "merkleProofL1",
                    "type": "bytes32[]"
                },
                {
                    "internalType": "bytes32[]",
                    "name": "merkleProofL2",
                    "type": "bytes32[]"
                }
            ],
            "name": "calculateMintingCost",
            "outputs": [
                {
                    "internalType": "uint256",
                    "name": "",
                    "type": "uint256"
                }
            ],
            "stateMutability": "view",
            "type": "function"
        },
        {
            "inputs": [],
            "name": "claimRewards",
            "outputs": [],
            "stateMutability": "nonpayable",
            "type": "function"
        },
        {
            "inputs": [
                {
                    "internalType": "address",
                    "name": "",
                    "type": "address"
                }
            ],
            "name": "claimableAmount",
            "outputs": [
                {
                    "internalType": "uint256",
                    "name": "",
                    "type": "uint256"
                }
            ],
            "stateMutability": "view",
            "type": "function"
        },
        {
            "inputs": [],
            "name": "cost",
            "outputs": [
                {
                    "internalType": "uint256",
                    "name": "",
                    "type": "uint256"
                }
            ],
            "stateMutability": "view",
            "type": "function"
        },
        {
            "inputs": [],
            "name": "currentWethContractBalance",
            "outputs": [
                {
                    "internalType": "uint256",
                    "name": "",
                    "type": "uint256"
                }
            ],
            "stateMutability": "view",
            "type": "function"
        },
        {
            "inputs": [],
            "name": "deployedTimestamp",
            "outputs": [
                {
                    "internalType": "uint256",
                    "name": "",
                    "type": "uint256"
                }
            ],
            "stateMutability": "view",
            "type": "function"
        },
        {
            "inputs": [],
            "name": "discountPercentage",
            "outputs": [
                {
                    "internalType": "uint8",
                    "name": "",
                    "type": "uint8"
                }
            ],
            "stateMutability": "view",
            "type": "function"
        },
        {
            "inputs": [
                {
                    "internalType": "uint256",
                    "name": "tokenId",
                    "type": "uint256"
                }
            ],
            "name": "getApproved",
            "outputs": [
                {
                    "internalType": "address",
                    "name": "",
                    "type": "address"
                }
            ],
            "stateMutability": "view",
            "type": "function"
        },
        {
            "inputs": [],
            "name": "getBalance",
            "outputs": [
                {
                    "internalType": "uint256",
                    "name": "",
                    "type": "uint256"
                }
            ],
            "stateMutability": "view",
            "type": "function"
        },
        {
            "inputs": [
                {
                    "internalType": "uint256",
                    "name": "_startTime",
                    "type": "uint256"
                },
                {
                    "internalType": "uint256",
                    "name": "_endTime",
                    "type": "uint256"
                }
            ],
            "name": "getElapsedTime",
            "outputs": [
                {
                    "internalType": "uint256",
                    "name": "",
                    "type": "uint256"
                }
            ],
            "stateMutability": "view",
            "type": "function"
        },
        {
            "inputs": [],
            "name": "getNumberOfTokenHolders",
            "outputs": [
                {
                    "internalType": "uint256",
                    "name": "",
                    "type": "uint256"
                }
            ],
            "stateMutability": "view",
            "type": "function"
        },
        {
            "inputs": [
                {
                    "internalType": "uint256",
                    "name": "id",
                    "type": "uint256"
                }
            ],
            "name": "getRaribleV2Royalties",
            "outputs": [
                {
                    "components": [
                        {
                            "internalType": "address payable",
                            "name": "account",
                            "type": "address"
                        },
                        {
                            "internalType": "uint96",
                            "name": "value",
                            "type": "uint96"
                        }
                    ],
                    "internalType": "struct LibPart.Part[]",
                    "name": "",
                    "type": "tuple[]"
                }
            ],
            "stateMutability": "view",
            "type": "function"
        },
        {
            "inputs": [],
            "name": "getWethBalance",
            "outputs": [
                {
                    "internalType": "uint256",
                    "name": "",
                    "type": "uint256"
                }
            ],
            "stateMutability": "view",
            "type": "function"
        },
        {
            "inputs": [
                {
                    "internalType": "address",
                    "name": "account",
                    "type": "address"
                },
                {
                    "internalType": "bytes32[]",
                    "name": "merkleProof",
                    "type": "bytes32[]"
                },
                {
                    "internalType": "bytes32",
                    "name": "merkleRoot",
                    "type": "bytes32"
                }
            ],
            "name": "isAccountOnList",
            "outputs": [
                {
                    "internalType": "bool",
                    "name": "",
                    "type": "bool"
                }
            ],
            "stateMutability": "pure",
            "type": "function"
        },
        {
            "inputs": [
                {
                    "internalType": "address",
                    "name": "owner",
                    "type": "address"
                },
                {
                    "internalType": "address",
                    "name": "operator",
                    "type": "address"
                }
            ],
            "name": "isApprovedForAll",
            "outputs": [
                {
                    "internalType": "bool",
                    "name": "",
                    "type": "bool"
                }
            ],
            "stateMutability": "view",
            "type": "function"
        },
        {
            "inputs": [],
            "name": "maxSupply",
            "outputs": [
                {
                    "internalType": "uint256",
                    "name": "",
                    "type": "uint256"
                }
            ],
            "stateMutability": "view",
            "type": "function"
        },
        {
            "inputs": [],
            "name": "merkleRootL1",
            "outputs": [
                {
                    "internalType": "bytes32",
                    "name": "",
                    "type": "bytes32"
                }
            ],
            "stateMutability": "view",
            "type": "function"
        },
        {
            "inputs": [],
            "name": "merkleRootL1Time",
            "outputs": [
                {
                    "internalType": "uint256",
                    "name": "",
                    "type": "uint256"
                }
            ],
            "stateMutability": "view",
            "type": "function"
        },
        {
            "inputs": [],
            "name": "merkleRootL2",
            "outputs": [
                {
                    "internalType": "bytes32",
                    "name": "",
                    "type": "bytes32"
                }
            ],
            "stateMutability": "view",
            "type": "function"
        },
        {
            "inputs": [],
            "name": "merkleRootL2Time",
            "outputs": [
                {
                    "internalType": "uint256",
                    "name": "",
                    "type": "uint256"
                }
            ],
            "stateMutability": "view",
            "type": "function"
        },
        {
            "inputs": [
                {
                    "internalType": "uint256",
                    "name": "_mintAmount",
                    "type": "uint256"
                },
                {
                    "internalType": "bytes32[]",
                    "name": "merkleProofL1",
                    "type": "bytes32[]"
                },
                {
                    "internalType": "bytes32[]",
                    "name": "merkleProofL2",
                    "type": "bytes32[]"
                }
            ],
            "name": "mint",
            "outputs": [],
            "stateMutability": "payable",
            "type": "function"
        },
        {
            "inputs": [],
            "name": "name",
            "outputs": [
                {
                    "internalType": "string",
                    "name": "",
                    "type": "string"
                }
            ],
            "stateMutability": "view",
            "type": "function"
        },
        {
            "inputs": [],
            "name": "nftType",
            "outputs": [
                {
                    "internalType": "uint8",
                    "name": "",
                    "type": "uint8"
                }
            ],
            "stateMutability": "view",
            "type": "function"
        },
        {
            "inputs": [],
            "name": "notRevealedUri",
            "outputs": [
                {
                    "internalType": "string",
                    "name": "",
                    "type": "string"
                }
            ],
            "stateMutability": "view",
            "type": "function"
        },
        {
            "inputs": [],
            "name": "owner",
            "outputs": [
                {
                    "internalType": "address",
                    "name": "",
                    "type": "address"
                }
            ],
            "stateMutability": "view",
            "type": "function"
        },
        {
            "inputs": [
                {
                    "internalType": "uint256",
                    "name": "tokenId",
                    "type": "uint256"
                }
            ],
            "name": "ownerOf",
            "outputs": [
                {
                    "internalType": "address",
                    "name": "",
                    "type": "address"
                }
            ],
            "stateMutability": "view",
            "type": "function"
        },
        {
            "inputs": [
                {
                    "internalType": "bool",
                    "name": "_state",
                    "type": "bool"
                }
            ],
            "name": "pause",
            "outputs": [],
            "stateMutability": "nonpayable",
            "type": "function"
        },
        {
            "inputs": [],
            "name": "paused",
            "outputs": [
                {
                    "internalType": "bool",
                    "name": "",
                    "type": "bool"
                }
            ],
            "stateMutability": "view",
            "type": "function"
        },
        {
            "inputs": [],
            "name": "renounceOwnership",
            "outputs": [],
            "stateMutability": "nonpayable",
            "type": "function"
        },
        {
            "inputs": [],
            "name": "reveal",
            "outputs": [],
            "stateMutability": "nonpayable",
            "type": "function"
        },
        {
            "inputs": [],
            "name": "revealed",
            "outputs": [
                {
                    "internalType": "bool",
                    "name": "",
                    "type": "bool"
                }
            ],
            "stateMutability": "view",
            "type": "function"
        },
        {
            "inputs": [
                {
                    "internalType": "uint256",
                    "name": "_tokenId",
                    "type": "uint256"
                },
                {
                    "internalType": "uint256",
                    "name": "_salePrice",
                    "type": "uint256"
                }
            ],
            "name": "royaltyInfo",
            "outputs": [
                {
                    "internalType": "address",
                    "name": "receiver",
                    "type": "address"
                },
                {
                    "internalType": "uint256",
                    "name": "royaltyAmount",
                    "type": "uint256"
                }
            ],
            "stateMutability": "view",
            "type": "function"
        },
        {
            "inputs": [
                {
                    "internalType": "address",
                    "name": "from",
                    "type": "address"
                },
                {
                    "internalType": "address",
                    "name": "to",
                    "type": "address"
                },
                {
                    "internalType": "uint256",
                    "name": "tokenId",
                    "type": "uint256"
                }
            ],
            "name": "safeTransferFrom",
            "outputs": [],
            "stateMutability": "nonpayable",
            "type": "function"
        },
        {
            "inputs": [
                {
                    "internalType": "address",
                    "name": "from",
                    "type": "address"
                },
                {
                    "internalType": "address",
                    "name": "to",
                    "type": "address"
                },
                {
                    "internalType": "uint256",
                    "name": "tokenId",
                    "type": "uint256"
                },
                {
                    "internalType": "bytes",
                    "name": "data",
                    "type": "bytes"
                }
            ],
            "name": "safeTransferFrom",
            "outputs": [],
            "stateMutability": "nonpayable",
            "type": "function"
        },
        {
            "inputs": [
                {
                    "internalType": "address",
                    "name": "operator",
                    "type": "address"
                },
                {
                    "internalType": "bool",
                    "name": "approved",
                    "type": "bool"
                }
            ],
            "name": "setApprovalForAll",
            "outputs": [],
            "stateMutability": "nonpayable",
            "type": "function"
        },
        {
            "inputs": [
                {
                    "internalType": "string",
                    "name": "_newBaseExtension",
                    "type": "string"
                }
            ],
            "name": "setBaseExtension",
            "outputs": [],
            "stateMutability": "nonpayable",
            "type": "function"
        },
        {
            "inputs": [
                {
                    "internalType": "string",
                    "name": "_newBaseURI",
                    "type": "string"
                }
            ],
            "name": "setBaseURI",
            "outputs": [],
            "stateMutability": "nonpayable",
            "type": "function"
        },
        {
            "inputs": [
                {
                    "internalType": "uint256",
                    "name": "_newCost",
                    "type": "uint256"
                }
            ],
            "name": "setCost",
            "outputs": [],
            "stateMutability": "nonpayable",
            "type": "function"
        },
        {
            "inputs": [
                {
                    "internalType": "bytes32",
                    "name": "_merkleRootL1",
                    "type": "bytes32"
                }
            ],
            "name": "setMerkleRootL1",
            "outputs": [],
            "stateMutability": "nonpayable",
            "type": "function"
        },
        {
            "inputs": [
                {
                    "internalType": "bytes32",
                    "name": "_merkleRootL2",
                    "type": "bytes32"
                }
            ],
            "name": "setMerkleRootL2",
            "outputs": [],
            "stateMutability": "nonpayable",
            "type": "function"
        },
        {
            "inputs": [
                {
                    "internalType": "string",
                    "name": "_notRevealedURI",
                    "type": "string"
                }
            ],
            "name": "setNotRevealedURI",
            "outputs": [],
            "stateMutability": "nonpayable",
            "type": "function"
        },
        {
            "inputs": [
                {
                    "internalType": "bytes4",
                    "name": "interfaceId",
                    "type": "bytes4"
                }
            ],
            "name": "supportsInterface",
            "outputs": [
                {
                    "internalType": "bool",
                    "name": "",
                    "type": "bool"
                }
            ],
            "stateMutability": "view",
            "type": "function"
        },
        {
            "inputs": [],
            "name": "symbol",
            "outputs": [
                {
                    "internalType": "string",
                    "name": "",
                    "type": "string"
                }
            ],
            "stateMutability": "view",
            "type": "function"
        },
        {
            "inputs": [
                {
                    "internalType": "uint256",
                    "name": "index",
                    "type": "uint256"
                }
            ],
            "name": "tokenByIndex",
            "outputs": [
                {
                    "internalType": "uint256",
                    "name": "",
                    "type": "uint256"
                }
            ],
            "stateMutability": "view",
            "type": "function"
        },
        {
            "inputs": [
                {
                    "internalType": "address",
                    "name": "owner",
                    "type": "address"
                },
                {
                    "internalType": "uint256",
                    "name": "index",
                    "type": "uint256"
                }
            ],
            "name": "tokenOfOwnerByIndex",
            "outputs": [
                {
                    "internalType": "uint256",
                    "name": "",
                    "type": "uint256"
                }
            ],
            "stateMutability": "view",
            "type": "function"
        },
        {
            "inputs": [
                {
                    "internalType": "uint256",
                    "name": "tokenId",
                    "type": "uint256"
                }
            ],
            "name": "tokenURI",
            "outputs": [
                {
                    "internalType": "string",
                    "name": "",
                    "type": "string"
                }
            ],
            "stateMutability": "view",
            "type": "function"
        },
        {
            "inputs": [],
            "name": "totalSupply",
            "outputs": [
                {
                    "internalType": "uint256",
                    "name": "",
                    "type": "uint256"
                }
            ],
            "stateMutability": "view",
            "type": "function"
        },
        {
            "inputs": [
                {
                    "internalType": "address",
                    "name": "from",
                    "type": "address"
                },
                {
                    "internalType": "address",
                    "name": "to",
                    "type": "address"
                },
                {
                    "internalType": "uint256",
                    "name": "tokenId",
                    "type": "uint256"
                }
            ],
            "name": "transferFrom",
            "outputs": [],
            "stateMutability": "nonpayable",
            "type": "function"
        },
        {
            "inputs": [
                {
                    "internalType": "address",
                    "name": "newOwner",
                    "type": "address"
                }
            ],
            "name": "transferOwnership",
            "outputs": [],
            "stateMutability": "nonpayable",
            "type": "function"
        },
        {
            "inputs": [
                {
                    "internalType": "uint256",
                    "name": "_amount",
                    "type": "uint256"
                }
            ],
            "name": "unwrapWeth",
            "outputs": [],
            "stateMutability": "nonpayable",
            "type": "function"
        },
        {
            "inputs": [
                {
                    "internalType": "address",
                    "name": "_owner",
                    "type": "address"
                }
            ],
            "name": "walletOfOwner",
            "outputs": [
                {
                    "internalType": "uint256[]",
                    "name": "",
                    "type": "uint256[]"
                }
            ],
            "stateMutability": "view",
            "type": "function"
        },
        {
            "inputs": [],
            "name": "weth",
            "outputs": [
                {
                    "internalType": "contract IWETH",
                    "name": "",
                    "type": "address"
                }
            ],
            "stateMutability": "view",
            "type": "function"
        },
        {
            "inputs": [],
            "name": "withdrawEth",
            "outputs": [],
            "stateMutability": "nonpayable",
            "type": "function"
        },
        {
            "inputs": [],
            "name": "withdrawWeth",
            "outputs": [],
            "stateMutability": "nonpayable",
            "type": "function"
        },
        {
            "stateMutability": "payable",
            "type": "receive"
        }
    ],
    "bytecode": "60806040523480156200001157600080fd5b506040516200426f3803806200426f83398101604081905262000034916200032c565b83836000620000448382620004d6565b506001620000538282620004d6565b505050620000706200006a6200016560201b60201c565b62000169565b600c805460ff8a8116600160a81b0260ff60a81b19918d16600160a01b026001600160a81b03199093169290921773b4fbf271143f4fbf7b91a5ded31805e42b2208d61716179055600d620000c68882620004d6565b50604080518082019091526005815264173539b7b760d91b6020820152600e90620000f29082620004d6565b50600f86905560108590556011805461ffff19166101001790556040805160208101909152600081526012906200012a9082620004d6565b5042601c5562ed4e006019819055601b556000601d556200014b82620001bb565b6200015681620001d7565b505050505050505050620005a2565b3390565b600a80546001600160a01b038381166001600160a01b0319831681179093556040519116919082907f8be0079c531659141344cd1fd0a4f28419497f9722a3daafe3b4186f6b6457e090600090a35050565b620001c5620001ef565b600d620001d38282620004d6565b5050565b620001e1620001ef565b6012620001d38282620004d6565b600a546001600160a01b031633146200024e5760405162461bcd60e51b815260206004820181905260248201527f4f776e61626c653a2063616c6c6572206973206e6f7420746865206f776e6572604482015260640160405180910390fd5b565b805160ff811681146200026257600080fd5b919050565b634e487b7160e01b600052604160045260246000fd5b600082601f8301126200028f57600080fd5b81516001600160401b0380821115620002ac57620002ac62000267565b604051601f8301601f19908116603f01168101908282118183101715620002d757620002d762000267565b81604052838152602092508683858801011115620002f457600080fd5b600091505b83821015620003185785820183015181830184015290820190620002f9565b600093810190920192909252949350505050565b60008060008060008060008060006101208a8c0312156200034c57600080fd5b620003578a62000250565b98506200036760208b0162000250565b60408b01519098506001600160401b03808211156200038557600080fd5b620003938d838e016200027d565b985060608c0151975060808c0151965060a08c0151915080821115620003b857600080fd5b620003c68d838e016200027d565b955060c08c0151915080821115620003dd57600080fd5b620003eb8d838e016200027d565b945060e08c01519150808211156200040257600080fd5b620004108d838e016200027d565b93506101008c01519150808211156200042857600080fd5b50620004378c828d016200027d565b9150509295985092959850929598565b600181811c908216806200045c57607f821691505b6020821081036200047d57634e487b7160e01b600052602260045260246000fd5b50919050565b601f821115620004d157600081815260208120601f850160051c81016020861015620004ac5750805b601f850160051c820191505b81811015620004cd57828155600101620004b8565b5050505b505050565b81516001600160401b03811115620004f257620004f262000267565b6200050a8162000503845462000447565b8462000483565b602080601f831160018114620005425760008415620005295750858301515b600019600386901b1c1916600185901b178555620004cd565b600085815260208120601f198616915b82811015620005735788860151825594840194600190910190840162000552565b5085821015620005925787850151600019600388901b60f8161c191681555b5050505050600190811b01905550565b613cbd80620005b26000396000f3fe6080604052600436106103855760003560e01c80636352211e116101d1578063a475b5dd11610102578063d5abeb01116100a0578063e985e9c51161006f578063e985e9c5146109f9578063ef6d301b14610a42578063f2c4ce1e14610a58578063f2fde38b14610a7857600080fd5b8063d5abeb011461098d578063da3ef23f146109a3578063e2e4ecd9146109c3578063e6bbe424146109e357600080fd5b8063c6682862116100dc578063c66828621461090b578063c87b56dd14610920578063ca85dfc714610940578063cad96cca1461096057600080fd5b8063a475b5dd146108b5578063b3fa9f24146108ca578063b88d4fde146108eb57600080fd5b80638da5cb5b1161016f5780639dd58b58116101495780639dd58b581461084b578063a027392b14610860578063a0ef91df14610880578063a22cb4651461089557600080fd5b80638da5cb5b14610802578063946c0f811461082057806395d89b411461083657600080fd5b80636fac889b116101ab5780636fac889b1461076d57806370a08231146107a0578063715018a6146107c057806389885049146107d557600080fd5b80636352211e14610722578063639fdfe3146107425780636c0360eb1461075857600080fd5b80632f745c59116102b6578063438b630011610254578063518302271161022357806351830227146106b457806355f804b3146106d35780635a862dcc146106f35780635c975abb1461070857600080fd5b8063438b63001461063457806344a0d68a14610661578063472fab1b146106815780634f6ccce71461069457600080fd5b8063372500ab11610290578063372500ab146105bf5780633fc8cef3146105d4578063407c6809146105f457806342842e0e1461061457600080fd5b80632f745c5914610573578063337420631461059357806335152f0e146105a957600080fd5b806310c8b5501161032357806318160ddd116102fd57806318160ddd146104df57806323b872dd146104f45780632a55205a146105145780632b6eb0501461055357600080fd5b806310c8b5501461049657806312065fe0146104b657806313faede6146104c957600080fd5b8063081812fc1161035f578063081812fc1461040a578063081c8c4414610442578063095ea7b31461045757806309bbedde1461047757600080fd5b806301ffc9a71461039157806302329a29146103c657806306fdde03146103e857600080fd5b3661038c57005b600080fd5b34801561039d57600080fd5b506103b16103ac36600461326a565b610a98565b60405190151581526020015b60405180910390f35b3480156103d257600080fd5b506103e66103e1366004613295565b610ae9565b005b3480156103f457600080fd5b506103fd610b04565b6040516103bd9190613302565b34801561041657600080fd5b5061042a610425366004613315565b610b96565b6040516001600160a01b0390911681526020016103bd565b34801561044e57600080fd5b506103fd610bbd565b34801561046357600080fd5b506103e6610472366004613343565b610c4b565b34801561048357600080fd5b506013545b6040519081526020016103bd565b3480156104a257600080fd5b506104886104b136600461336f565b610d65565b3480156104c257600080fd5b5047610488565b3480156104d557600080fd5b50610488600f5481565b3480156104eb57600080fd5b50600854610488565b34801561050057600080fd5b506103e661050f366004613391565b610e10565b34801561052057600080fd5b5061053461052f36600461336f565b610e41565b604080516001600160a01b0390931683526020830191909152016103bd565b34801561055f57600080fd5b506103b161056e366004613417565b610f47565b34801561057f57600080fd5b5061048861058e366004613343565b610fc7565b34801561059f57600080fd5b50610488601a5481565b3480156105b557600080fd5b50610488601d5481565b3480156105cb57600080fd5b506103e661105d565b3480156105e057600080fd5b50600c5461042a906001600160a01b031681565b34801561060057600080fd5b5061048861060f366004613473565b611203565b34801561062057600080fd5b506103e661062f366004613391565b6112ac565b34801561064057600080fd5b5061065461064f3660046134ff565b6112b7565b6040516103bd919061351c565b34801561066d57600080fd5b506103e661067c366004613315565b611359565b6103e661068f366004613560565b611366565b3480156106a057600080fd5b506104886106af366004613315565b611513565b3480156106c057600080fd5b506011546103b190610100900460ff1681565b3480156106df57600080fd5b506103e66106ee366004613666565b6115a6565b3480156106ff57600080fd5b506103e66115be565b34801561071457600080fd5b506011546103b19060ff1681565b34801561072e57600080fd5b5061042a61073d366004613315565b61166d565b34801561074e57600080fd5b5061048860185481565b34801561076457600080fd5b506103fd6116cd565b34801561077957600080fd5b50600c5461078e90600160a01b900460ff1681565b60405160ff90911681526020016103bd565b3480156107ac57600080fd5b506104886107bb3660046134ff565b6116da565b3480156107cc57600080fd5b506103e6611760565b3480156107e157600080fd5b506104886107f03660046134ff565b60176020526000908152604090205481565b34801561080e57600080fd5b50600a546001600160a01b031661042a565b34801561082c57600080fd5b5061048860195481565b34801561084257600080fd5b506103fd611774565b34801561085757600080fd5b50610488611783565b34801561086c57600080fd5b506103e661087b366004613315565b6117f5565b34801561088c57600080fd5b506103e6611802565b3480156108a157600080fd5b506103e66108b03660046136af565b611895565b3480156108c157600080fd5b506103e66118a0565b3480156108d657600080fd5b50600c5461078e90600160a81b900460ff1681565b3480156108f757600080fd5b506103e66109063660046136e8565b6118b9565b34801561091757600080fd5b506103fd6118f1565b34801561092c57600080fd5b506103fd61093b366004613315565b6118fe565b34801561094c57600080fd5b506103e661095b366004613315565b611a69565b34801561096c57600080fd5b5061098061097b366004613315565b611ad2565b6040516103bd91906137c0565b34801561099957600080fd5b5061048860105481565b3480156109af57600080fd5b506103e66109be366004613666565b611b61565b3480156109cf57600080fd5b506103e66109de366004613315565b611b75565b3480156109ef57600080fd5b50610488601c5481565b348015610a0557600080fd5b506103b1610a143660046137d3565b6001600160a01b03918216600090815260056020908152604080832093909416825291909152205460ff1690565b348015610a4e57600080fd5b50610488601b5481565b348015610a6457600080fd5b506103e6610a73366004613666565b611b82565b348015610a8457600080fd5b506103e6610a933660046134ff565b611b96565b6000631a93499b60e11b6001600160e01b0319831601610aba57506001919050565b636ad56fd360e11b6001600160e01b0319831601610ada57506001919050565b610ae382611c0c565b92915050565b610af1611c31565b6011805460ff1916911515919091179055565b606060008054610b1390613801565b80601f0160208091040260200160405190810160405280929190818152602001828054610b3f90613801565b8015610b8c5780601f10610b6157610100808354040283529160200191610b8c565b820191906000526020600020905b815481529060010190602001808311610b6f57829003601f168201915b5050505050905090565b6000610ba182611c8b565b506000908152600460205260409020546001600160a01b031690565b60128054610bca90613801565b80601f0160208091040260200160405190810160405280929190818152602001828054610bf690613801565b8015610c435780601f10610c1857610100808354040283529160200191610c43565b820191906000526020600020905b815481529060010190602001808311610c2657829003601f168201915b505050505081565b6000610c568261166d565b9050806001600160a01b0316836001600160a01b031603610cc85760405162461bcd60e51b815260206004820152602160248201527f4552433732313a20617070726f76616c20746f2063757272656e74206f776e656044820152603960f91b60648201526084015b60405180910390fd5b336001600160a01b0382161480610ce45750610ce48133610a14565b610d565760405162461bcd60e51b815260206004820152603d60248201527f4552433732313a20617070726f76652063616c6c6572206973206e6f7420746f60448201527f6b656e206f776e6572206f7220617070726f76656420666f7220616c6c0000006064820152608401610cbf565b610d608383611cea565b505050565b6000610d976040518060400160405280600e81526020016d53746172742074696d653a20257360901b81525084611d58565b610dc56040518060400160405280600c81526020016b456e642074696d653a20257360a01b81525083611d58565b60408051808201909152601081526f456c61707365642074696d653a20257360801b6020820152610dff90610dfa8585613851565b611d58565b610e098383613851565b9392505050565b610e1a3382611d9d565b610e365760405162461bcd60e51b8152600401610cbf90613864565b610d60838383611e1b565b6000828152600b60209081526040808320805482518185028101850190935280835284938493929190849084015b82821015610ebe57600084815260209081902060408051808201909152908401546001600160a01b0381168252600160a01b90046001600160601b031681830152825260019092019101610e6f565b505050509050600081511115610f375780600081518110610ee157610ee16138b1565b60200260200101516000015161271082600081518110610f0357610f036138b1565b6020026020010151602001516001600160601b031686610f2391906138c7565b610f2d91906138de565b9250925050610f40565b60008092509250505b9250929050565b6000610fbc848480806020026020016040519081016040528093929190818152602001838360200280828437600092019190915250506040516bffffffffffffffffffffffff1960608b901b166020820152869250603401905060405160208183030381529060405280519060200120611f94565b90505b949350505050565b6000610fd2836116da565b82106110345760405162461bcd60e51b815260206004820152602b60248201527f455243373231456e756d657261626c653a206f776e657220696e646578206f7560448201526a74206f6620626f756e647360a81b6064820152608401610cbf565b506001600160a01b03919091166000908152600660209081526040808320938352929052205490565b6040516317e142d160e01b81526013600482015233602482015273__$122ac72e36aa1b1c35e4dbb80a7b395c5d$__906317e142d190604401602060405180830381865af41580156110b3573d6000803e3d6000fd5b505050506040513d601f19601f820116820180604052508101906110d79190613900565b1961111b5760405162461bcd60e51b81526020600482015260146024820152732cb7ba9030b932903737ba1030903437b63232b960611b6044820152606401610cbf565b336000908152601760205260409020546111775760405162461bcd60e51b815260206004820152601c60248201527f596f752068617665206e6f207265776172647320746f20636c61696d000000006044820152606401610cbf565b33600081815260176020526040808220829055600c54905163a9059cbb60e01b8152600481019390935260248301919091526001600160a01b03169063a9059cbb906044015b6020604051808303816000875af11580156111dc573d6000803e3d6000fd5b505050506040513d601f19601f820116820180604052508101906112009190613919565b50565b6000611213878686601854610f47565b801561122c5750601954611229601c5442610d65565b11155b15611239575060006112a2565b611247878484601a54610f47565b80156112605750601b5461125d601c5442610d65565b10155b80156112845750601b546112759060026138c7565b611281601c5442610d65565b11155b15611291575060006112a2565b85600f5461129f91906138c7565b90505b9695505050505050565b610d60838383611faa565b606060006112c4836116da565b905060008167ffffffffffffffff8111156112e1576112e16135da565b60405190808252806020026020018201604052801561130a578160200160208202803683370190505b50905060005b82811015611351576113228582610fc7565b828281518110611334576113346138b1565b60209081029190910101528061134981613936565b915050611310565b509392505050565b611361611c31565b600f55565b600061137160085490565b60115490915060ff16156113b55760405162461bcd60e51b815260206004820152600b60248201526a14d85b19481c185d5cd95960aa1b6044820152606401610cbf565b600086116113fb5760405162461bcd60e51b815260206004820152601360248201527243616e2774206d696e74203020746f6b656e7360681b6044820152606401610cbf565b601054611408878361394f565b11156114565760405162461bcd60e51b815260206004820181905260248201527f507572636861736520776f756c6420657863656564206d617820737570706c796044820152606401610cbf565b6000611466338888888888611203565b905080156114c757803410156114be5760405162461bcd60e51b815260206004820152601f60248201527f45746865722076616c75652073656e74206973206e6f7420636f7272656374006044820152606401610cbf565b6114c734611fc5565b60015b8781116115095760006114dd828561394f565b90506114e93382612050565b6114f681306103e861206a565b508061150181613936565b9150506114ca565b5050505050505050565b600061151e60085490565b82106115815760405162461bcd60e51b815260206004820152602c60248201527f455243373231456e756d657261626c653a20676c6f62616c20696e646578206f60448201526b7574206f6620626f756e647360a01b6064820152608401610cbf565b60088281548110611594576115946138b1565b90600052602060002001549050919050565b6115ae611c31565b600d6115ba82826139a8565b5050565b6115c6611c31565b600c546040516370a0823160e01b81523060048201526001600160a01b039091169063a9059cbb90339083906370a0823190602401602060405180830381865afa158015611618573d6000803e3d6000fd5b505050506040513d601f19601f8201168201806040525081019061163c9190613900565b6040516001600160e01b031960e085901b1681526001600160a01b03909216600483015260248201526044016111bd565b6000818152600260205260408120546001600160a01b031680610ae35760405162461bcd60e51b8152602060048201526018602482015277115490cdcc8c4e881a5b9d985b1a59081d1bdad95b88125160421b6044820152606401610cbf565b600d8054610bca90613801565b60006001600160a01b0382166117445760405162461bcd60e51b815260206004820152602960248201527f4552433732313a2061646472657373207a65726f206973206e6f7420612076616044820152683634b21037bbb732b960b91b6064820152608401610cbf565b506001600160a01b031660009081526003602052604090205490565b611768611c31565b6117726000612118565b565b606060018054610b1390613801565b600c546040516370a0823160e01b81523060048201526000916001600160a01b0316906370a0823190602401602060405180830381865afa1580156117cc573d6000803e3d6000fd5b505050506040513d601f19601f820116820180604052508101906117f09190613900565b905090565b6117fd611c31565b601a55565b61180a611c31565b604051600090339047908381818185875af1925050503d806000811461184c576040519150601f19603f3d011682016040523d82523d6000602084013e611851565b606091505b50509050806112005760405162461bcd60e51b815260206004820152601060248201526f2a3930b739b332b9103330b4b632b21760811b6044820152606401610cbf565b6115ba33838361216a565b6118a8611c31565b6011805461ff001916610100179055565b6118c33383611d9d565b6118df5760405162461bcd60e51b8152600401610cbf90613864565b6118eb84848484612238565b50505050565b600e8054610bca90613801565b6000818152600260205260409020546060906001600160a01b03166119655760405162461bcd60e51b815260206004820152601f60248201527f4552433732314d657461646174613a20555249206e6f6e6578697374656e74006044820152606401610cbf565b601154610100900460ff161515600003611a0b576012805461198690613801565b80601f01602080910402602001604051908101604052809291908181526020018280546119b290613801565b80156119ff5780601f106119d4576101008083540402835291602001916119ff565b820191906000526020600020905b8154815290600101906020018083116119e257829003601f168201915b50505050509050919050565b6000611a1561226b565b90506000815111611a355760405180602001604052806000815250610e09565b80611a3f8461227a565b600e604051602001611a5393929190613a68565b6040516020818303038152906040529392505050565b611a71611c31565b600c54604051632e1a7d4d60e01b8152600481018390526001600160a01b0390911690632e1a7d4d90602401600060405180830381600087803b158015611ab757600080fd5b505af1158015611acb573d6000803e3d6000fd5b5050505050565b6060600b6000838152602001908152602001600020805480602002602001604051908101604052809291908181526020016000905b82821015611b5657600084815260209081902060408051808201909152908401546001600160a01b0381168252600160a01b90046001600160601b031681830152825260019092019101611b07565b505050509050919050565b611b69611c31565b600e6115ba82826139a8565b611b7d611c31565b601855565b611b8a611c31565b60126115ba82826139a8565b611b9e611c31565b6001600160a01b038116611c035760405162461bcd60e51b815260206004820152602660248201527f4f776e61626c653a206e6577206f776e657220697320746865207a65726f206160448201526564647265737360d01b6064820152608401610cbf565b61120081612118565b60006001600160e01b0319821663780e9d6360e01b1480610ae35750610ae38261230d565b600a546001600160a01b031633146117725760405162461bcd60e51b815260206004820181905260248201527f4f776e61626c653a2063616c6c6572206973206e6f7420746865206f776e65726044820152606401610cbf565b6000818152600260205260409020546001600160a01b03166112005760405162461bcd60e51b8152602060048201526018602482015277115490cdcc8c4e881a5b9d985b1a59081d1bdad95b88125160421b6044820152606401610cbf565b600081815260046020526040902080546001600160a01b0319166001600160a01b0384169081179091558190611d1f8261166d565b6001600160a01b03167f8c5be1e5ebec7d5bd14f71427d1e84f3dd0314c0f7b2291e5b200ac8c7c3b92560405160405180910390a45050565b6115ba8282604051602401611d6e929190613b08565b60408051601f198184030181529190526020810180516001600160e01b0316632d839cb360e21b17905261235d565b600080611da98361166d565b9050806001600160a01b0316846001600160a01b03161480611df057506001600160a01b0380821660009081526005602090815260408083209388168352929052205460ff165b80610fbf5750836001600160a01b0316611e0984610b96565b6001600160a01b031614949350505050565b826001600160a01b0316611e2e8261166d565b6001600160a01b031614611e545760405162461bcd60e51b8152600401610cbf90613b2a565b6001600160a01b038216611eb65760405162461bcd60e51b8152602060048201526024808201527f4552433732313a207472616e7366657220746f20746865207a65726f206164646044820152637265737360e01b6064820152608401610cbf565b611ec3838383600161237e565b826001600160a01b0316611ed68261166d565b6001600160a01b031614611efc5760405162461bcd60e51b8152600401610cbf90613b2a565b600081815260046020908152604080832080546001600160a01b03199081169091556001600160a01b0387811680865260038552838620805460001901905590871680865283862080546001019055868652600290945282852080549092168417909155905184937fddf252ad1be2c89b69c2b068fc378daa952ba7f163c4a11628f55a4df523b3ef91a4610d6083838360016123ff565b600082611fa18584612805565b14949350505050565b610d60838383604051806020016040528060008152506118b9565b604051600090339083908381818185875af1925050503d8060008114612007576040519150601f19603f3d011682016040523d82523d6000602084013e61200c565b606091505b50509050806115ba5760405162461bcd60e51b815260206004820152601060248201526f2a3930b739b332b9103330b4b632b21760811b6044820152606401610cbf565b6115ba82826040518060200160405280600081525061284a565b604080516001808252818301909252600091816020015b604080518082019091526000808252602082015281526020019060019003908161208157905050905081816000815181106120be576120be6138b1565b6020026020010151602001906001600160601b031690816001600160601b03168152505082816000815181106120f6576120f66138b1565b60209081029190910101516001600160a01b0390911690526118eb848261287d565b600a80546001600160a01b038381166001600160a01b0319831681179093556040519116919082907f8be0079c531659141344cd1fd0a4f28419497f9722a3daafe3b4186f6b6457e090600090a35050565b816001600160a01b0316836001600160a01b0316036121cb5760405162461bcd60e51b815260206004820152601960248201527f4552433732313a20617070726f766520746f2063616c6c6572000000000000006044820152606401610cbf565b6001600160a01b03838116600081815260056020908152604080832094871680845294825291829020805460ff191686151590811790915591519182527f17307eab39ab6107e8899845ad3d59bd9653f200f220920489ca2b5937696c31910160405180910390a3505050565b612243848484611e1b565b61224f84848484612a96565b6118eb5760405162461bcd60e51b8152600401610cbf90613b6f565b6060600d8054610b1390613801565b6060600061228783612b94565b600101905060008167ffffffffffffffff8111156122a7576122a76135da565b6040519080825280601f01601f1916602001820160405280156122d1576020820181803683370190505b5090508181016020015b600019016f181899199a1a9b1b9c1cb0b131b232b360811b600a86061a8153600a85049450846122db57509392505050565b60006001600160e01b031982166380ac58cd60e01b148061233e57506001600160e01b03198216635b5e139f60e01b145b80610ae357506301ffc9a760e01b6001600160e01b0319831614610ae3565b80516a636f6e736f6c652e6c6f67602083016000808483855afa5050505050565b61238a84848484612c6c565b600c546040516370a0823160e01b81523060048201526001600160a01b03909116906370a0823190602401602060405180830381865afa1580156123d2573d6000803e3d6000fd5b505050506040513d601f19601f820116820180604052508101906123f69190613900565b601d5550505050565b6124346040518060400160405280601481526020017320b33a32b9103a37b5b2b7103a3930b739b332b960611b815250612da5565b61243d846116da565b6000036124b75760405163131836e760e21b8152601360048201526001600160a01b038516602482015273__$122ac72e36aa1b1c35e4dbb80a7b395c5d$__90634c60db9c9060440160006040518083038186803b15801561249e57600080fd5b505af41580156124b2573d6000803e3d6000fd5b505050505b604080518082019091526012815271686f6c64657273436f756e7465723a20257360701b60208201526013546124ed9190611d58565b6124f6836116da565b60010361257757604051632f0ad01760e21b8152601360048201526001600160a01b03841660248201526000604482015273__$122ac72e36aa1b1c35e4dbb80a7b395c5d$__9063bc2b405c9060640160006040518083038186803b15801561255e57600080fd5b505af4158015612572573d6000803e3d6000fd5b505050505b604080518082019091526012815271686f6c64657273436f756e7465723a20257360701b60208201526013546125ad9190611d58565b600c546040516370a0823160e01b81523060048201526000916001600160a01b0316906370a0823190602401602060405180830381865afa1580156125f6573d6000803e3d6000fd5b505050506040513d601f19601f8201168201806040525081019061261a9190613900565b90506000601d548261262c9190613851565b905080156127d05760135460009061264490836138de565b90506126786040518060400160405280601081526020016f657468506572486f6c6465723a20257360801b81525082611d58565b60005b6013548110156127cd576040516368d54f3f60e11b8152601360048201526024810182905260009073__$122ac72e36aa1b1c35e4dbb80a7b395c5d$__9063d1aa9e7e90604401602060405180830381865af41580156126df573d6000803e3d6000fd5b505050506040513d601f19601f820116820180604052508101906127039190613bc1565b90506127316040518060400160405280600a815260200169686f6c6465723a20257360b01b81525082612de8565b6001600160a01b0381166000908152601760205260408120805485929061275990849061394f565b925050819055506127ba60405180604001604052806013815260200172636c61696d61626c65416d6f756e743a20257360681b81525060176000846001600160a01b03166001600160a01b0316815260200190815260200160002054611d58565b50806127c581613936565b91505061267b565b50505b6127fd6040518060400160405280600b81526020016a657468446966663a20257360a81b81525082611d58565b505050505050565b600081815b84518110156113515761283682868381518110612829576128296138b1565b6020026020010151612e2d565b91508061284281613936565b91505061280a565b6128548383612e5c565b6128616000848484612a96565b610d605760405162461bcd60e51b8152600401610cbf90613b6f565b6000805b8251811015612a2c5760006001600160a01b03168382815181106128a7576128a76138b1565b6020026020010151600001516001600160a01b0316036129095760405162461bcd60e51b815260206004820152601b60248201527f526563697069656e742073686f756c642062652070726573656e7400000000006044820152606401610cbf565b82818151811061291b5761291b6138b1565b6020026020010151602001516001600160601b031660000361297f5760405162461bcd60e51b815260206004820181905260248201527f526f79616c74792076616c75652073686f756c6420626520706f7369746976656044820152606401610cbf565b828181518110612991576129916138b1565b6020026020010151602001516001600160601b0316826129b1919061394f565b9150600b60008581526020019081526020016000208382815181106129d8576129d86138b1565b6020908102919091018101518254600181018455600093845292829020815191909201516001600160601b0316600160a01b026001600160a01b039091161791015580612a2481613936565b915050612881565b506127108110612a8c5760405162461bcd60e51b815260206004820152602560248201527f526f79616c747920746f74616c2076616c75652073686f756c64206265203c20604482015264031303030360dc1b6064820152608401610cbf565b610d608383612fff565b60006001600160a01b0384163b15612b8c57604051630a85bd0160e11b81526001600160a01b0385169063150b7a0290612ada903390899088908890600401613bde565b6020604051808303816000875af1925050508015612b15575060408051601f3d908101601f19168201909252612b1291810190613c11565b60015b612b72573d808015612b43576040519150601f19603f3d011682016040523d82523d6000602084013e612b48565b606091505b508051600003612b6a5760405162461bcd60e51b8152600401610cbf90613b6f565b805181602001fd5b6001600160e01b031916630a85bd0160e11b149050610fbf565b506001610fbf565b60008072184f03e93ff9f4daa797ed6e38ed64bf6a1f0160401b8310612bd35772184f03e93ff9f4daa797ed6e38ed64bf6a1f0160401b830492506040015b6d04ee2d6d415b85acef81000000008310612bff576d04ee2d6d415b85acef8100000000830492506020015b662386f26fc100008310612c1d57662386f26fc10000830492506010015b6305f5e1008310612c35576305f5e100830492506008015b6127108310612c4957612710830492506004015b60648310612c5b576064830492506002015b600a8310610ae35760010192915050565b612c788484848461303c565b6001811115612ce75760405162461bcd60e51b815260206004820152603560248201527f455243373231456e756d657261626c653a20636f6e7365637574697665207472604482015274185b9cd9995c9cc81b9bdd081cdd5c1c1bdc9d1959605a1b6064820152608401610cbf565b816001600160a01b038516612d4357612d3e81600880546000838152600960205260408120829055600182018355919091527ff3f7a9fe364faab93b216da50a3214154f22a0a2b415b23a84c8169e8b636ee30155565b612d66565b836001600160a01b0316856001600160a01b031614612d6657612d6685826130c4565b6001600160a01b038416612d8257612d7d81613161565b611acb565b846001600160a01b0316846001600160a01b031614611acb57611acb8482613210565b61120081604051602401612db99190613302565b60408051601f198184030181529190526020810180516001600160e01b031663104c13eb60e21b17905261235d565b6115ba8282604051602401612dfe929190613c2e565b60408051601f198184030181529190526020810180516001600160e01b031663319af33360e01b17905261235d565b6000818310612e49576000828152602084905260409020610e09565b6000838152602083905260409020610e09565b6001600160a01b038216612eb25760405162461bcd60e51b815260206004820181905260248201527f4552433732313a206d696e7420746f20746865207a65726f20616464726573736044820152606401610cbf565b6000818152600260205260409020546001600160a01b031615612f175760405162461bcd60e51b815260206004820152601c60248201527f4552433732313a20746f6b656e20616c7265616479206d696e746564000000006044820152606401610cbf565b612f2560008383600161237e565b6000818152600260205260409020546001600160a01b031615612f8a5760405162461bcd60e51b815260206004820152601c60248201527f4552433732313a20746f6b656e20616c7265616479206d696e746564000000006044820152606401610cbf565b6001600160a01b038216600081815260036020908152604080832080546001019055848352600290915280822080546001600160a01b0319168417905551839291907fddf252ad1be2c89b69c2b068fc378daa952ba7f163c4a11628f55a4df523b3ef908290a46115ba6000838360016123ff565b7f3fa96d7b6bcbfe71ef171666d84db3cf52fa2d1c8afdb1cc8e486177f208b7df8282604051613030929190613c58565b60405180910390a15050565b60018111156118eb576001600160a01b03841615613082576001600160a01b0384166000908152600360205260408120805483929061307c908490613851565b90915550505b6001600160a01b038316156118eb576001600160a01b038316600090815260036020526040812080548392906130b990849061394f565b909155505050505050565b600060016130d1846116da565b6130db9190613851565b60008381526007602052604090205490915080821461312e576001600160a01b03841660009081526006602090815260408083208584528252808320548484528184208190558352600790915290208190555b5060009182526007602090815260408084208490556001600160a01b039094168352600681528383209183525290812055565b60085460009061317390600190613851565b6000838152600960205260408120546008805493945090928490811061319b5761319b6138b1565b9060005260206000200154905080600883815481106131bc576131bc6138b1565b60009182526020808320909101929092558281526009909152604080822084905585825281205560088054806131f4576131f4613c71565b6001900381819060005260206000200160009055905550505050565b600061321b836116da565b6001600160a01b039093166000908152600660209081526040808320868452825280832085905593825260079052919091209190915550565b6001600160e01b03198116811461120057600080fd5b60006020828403121561327c57600080fd5b8135610e0981613254565b801515811461120057600080fd5b6000602082840312156132a757600080fd5b8135610e0981613287565b60005b838110156132cd5781810151838201526020016132b5565b50506000910152565b600081518084526132ee8160208601602086016132b2565b601f01601f19169290920160200192915050565b602081526000610e0960208301846132d6565b60006020828403121561332757600080fd5b5035919050565b6001600160a01b038116811461120057600080fd5b6000806040838503121561335657600080fd5b82356133618161332e565b946020939093013593505050565b6000806040838503121561338257600080fd5b50508035926020909101359150565b6000806000606084860312156133a657600080fd5b83356133b18161332e565b925060208401356133c18161332e565b929592945050506040919091013590565b60008083601f8401126133e457600080fd5b50813567ffffffffffffffff8111156133fc57600080fd5b6020830191508360208260051b8501011115610f4057600080fd5b6000806000806060858703121561342d57600080fd5b84356134388161332e565b9350602085013567ffffffffffffffff81111561345457600080fd5b613460878288016133d2565b9598909750949560400135949350505050565b6000806000806000806080878903121561348c57600080fd5b86356134978161332e565b955060208701359450604087013567ffffffffffffffff808211156134bb57600080fd5b6134c78a838b016133d2565b909650945060608901359150808211156134e057600080fd5b506134ed89828a016133d2565b979a9699509497509295939492505050565b60006020828403121561351157600080fd5b8135610e098161332e565b6020808252825182820181905260009190848201906040850190845b8181101561355457835183529284019291840191600101613538565b50909695505050505050565b60008060008060006060868803121561357857600080fd5b85359450602086013567ffffffffffffffff8082111561359757600080fd5b6135a389838a016133d2565b909650945060408801359150808211156135bc57600080fd5b506135c9888289016133d2565b969995985093965092949392505050565b634e487b7160e01b600052604160045260246000fd5b600067ffffffffffffffff8084111561360b5761360b6135da565b604051601f8501601f19908116603f01168101908282118183101715613633576136336135da565b8160405280935085815286868601111561364c57600080fd5b858560208301376000602087830101525050509392505050565b60006020828403121561367857600080fd5b813567ffffffffffffffff81111561368f57600080fd5b8201601f810184136136a057600080fd5b610fbf848235602084016135f0565b600080604083850312156136c257600080fd5b82356136cd8161332e565b915060208301356136dd81613287565b809150509250929050565b600080600080608085870312156136fe57600080fd5b84356137098161332e565b935060208501356137198161332e565b925060408501359150606085013567ffffffffffffffff81111561373c57600080fd5b8501601f8101871361374d57600080fd5b61375c878235602084016135f0565b91505092959194509250565b600081518084526020808501945080840160005b838110156137b557815180516001600160a01b031688528301516001600160601b0316838801526040909601959082019060010161377c565b509495945050505050565b602081526000610e096020830184613768565b600080604083850312156137e657600080fd5b82356137f18161332e565b915060208301356136dd8161332e565b600181811c9082168061381557607f821691505b60208210810361383557634e487b7160e01b600052602260045260246000fd5b50919050565b634e487b7160e01b600052601160045260246000fd5b81810381811115610ae357610ae361383b565b6020808252602d908201527f4552433732313a2063616c6c6572206973206e6f7420746f6b656e206f776e6560408201526c1c881bdc88185c1c1c9bdd9959609a1b606082015260800190565b634e487b7160e01b600052603260045260246000fd5b8082028115828204841417610ae357610ae361383b565b6000826138fb57634e487b7160e01b600052601260045260246000fd5b500490565b60006020828403121561391257600080fd5b5051919050565b60006020828403121561392b57600080fd5b8151610e0981613287565b6000600182016139485761394861383b565b5060010190565b80820180821115610ae357610ae361383b565b601f821115610d6057600081815260208120601f850160051c810160208610156139895750805b601f850160051c820191505b818110156127fd57828155600101613995565b815167ffffffffffffffff8111156139c2576139c26135da565b6139d6816139d08454613801565b84613962565b602080601f831160018114613a0b57600084156139f35750858301515b600019600386901b1c1916600185901b1785556127fd565b600085815260208120601f198616915b82811015613a3a57888601518255948401946001909101908401613a1b565b5085821015613a585787850151600019600388901b60f8161c191681555b5050505050600190811b01905550565b600084516020613a7b8285838a016132b2565b855191840191613a8e8184848a016132b2565b8554920191600090613a9f81613801565b60018281168015613ab75760018114613acc57613af8565b60ff1984168752821515830287019450613af8565b896000528560002060005b84811015613af057815489820152908301908701613ad7565b505082870194505b50929a9950505050505050505050565b604081526000613b1b60408301856132d6565b90508260208301529392505050565b60208082526025908201527f4552433732313a207472616e736665722066726f6d20696e636f72726563742060408201526437bbb732b960d91b606082015260800190565b60208082526032908201527f4552433732313a207472616e7366657220746f206e6f6e20455243373231526560408201527131b2b4bb32b91034b6b83632b6b2b73a32b960711b606082015260800190565b600060208284031215613bd357600080fd5b8151610e098161332e565b6001600160a01b03858116825284166020820152604081018390526080606082018190526000906112a2908301846132d6565b600060208284031215613c2357600080fd5b8151610e0981613254565b604081526000613c4160408301856132d6565b905060018060a01b03831660208301529392505050565b828152604060208201526000610fbf6040830184613768565b634e487b7160e01b600052603160045260246000fdfea2646970667358221220816b010091bbdeafa8610fd32cef7d3c77202dd6958da93770be2b07071931c264736f6c63430008110033",
    "sourcePath": "/Users/karonte/dev/nft-distribution/gica_nft_sm/contracts/KittieNft.sol",
    "compiler": {
        "name": "solc",
        "version": "0.8.17+commit.8df45f5f"
    },
    "functionHashes": {
        "approve(address,uint256)": "095ea7b3",
        "balanceOf(address)": "70a08231",
        "baseExtension()": "c6682862",
        "baseURI()": "6c0360eb",
        "calculateMintingCost(address,uint256,bytes32[],bytes32[])": "407c6809",
        "claimRewards()": "372500ab",
        "claimableAmount(address)": "89885049",
        "cost()": "13faede6",
        "currentWethContractBalance()": "35152f0e",
        "deployedTimestamp()": "e6bbe424",
        "discountPercentage()": "b3fa9f24",
        "getApproved(uint256)": "081812fc",
        "getBalance()": "12065fe0",
        "getElapsedTime(uint256,uint256)": "10c8b550",
        "getNumberOfTokenHolders()": "09bbedde",
        "getRaribleV2Royalties(uint256)": "cad96cca",
        "getWethBalance()": "9dd58b58",
        "isAccountOnList(address,bytes32[],bytes32)": "2b6eb050",
        "isApprovedForAll(address,address)": "e985e9c5",
        "maxSupply()": "d5abeb01",
        "merkleRootL1()": "639fdfe3",
        "merkleRootL1Time()": "946c0f81",
        "merkleRootL2()": "33742063",
        "merkleRootL2Time()": "ef6d301b",
        "mint(uint256,bytes32[],bytes32[])": "472fab1b",
        "name()": "06fdde03",
        "nftType()": "6fac889b",
        "notRevealedUri()": "081c8c44",
        "owner()": "8da5cb5b",
        "ownerOf(uint256)": "6352211e",
        "pause(bool)": "02329a29",
        "paused()": "5c975abb",
        "renounceOwnership()": "715018a6",
        "reveal()": "a475b5dd",
        "revealed()": "51830227",
        "royaltyInfo(uint256,uint256)": "2a55205a",
        "safeTransferFrom(address,address,uint256)": "42842e0e",
        "safeTransferFrom(address,address,uint256,bytes)": "b88d4fde",
        "setApprovalForAll(address,bool)": "a22cb465",
        "setBaseExtension(string)": "da3ef23f",
        "setBaseURI(string)": "55f804b3",
        "setCost(uint256)": "44a0d68a",
        "setMerkleRootL1(bytes32)": "e2e4ecd9",
        "setMerkleRootL2(bytes32)": "a027392b",
        "setNotRevealedURI(string)": "f2c4ce1e",
        "supportsInterface(bytes4)": "01ffc9a7",
        "symbol()": "95d89b41",
        "tokenByIndex(uint256)": "4f6ccce7",
        "tokenOfOwnerByIndex(address,uint256)": "2f745c59",
        "tokenURI(uint256)": "c87b56dd",
        "totalSupply()": "18160ddd",
        "transferFrom(address,address,uint256)": "23b872dd",
        "transferOwnership(address)": "f2fde38b",
        "unwrapWeth(uint256)": "ca85dfc7",
        "walletOfOwner(address)": "438b6300",
        "weth()": "3fc8cef3",
        "withdrawEth()": "a0ef91df",
        "withdrawWeth()": "5a862dcc"
    },
    "gasEstimates": {
        "creation": {
            "codeDepositCost": "3109800",
            "executionCost": "infinite",
            "totalCost": "infinite"
        },
        "external": {
            "approve(address,uint256)": "infinite",
            "balanceOf(address)": "2673",
            "baseExtension()": "infinite",
            "baseURI()": "infinite",
            "calculateMintingCost(address,uint256,bytes32[],bytes32[])": "infinite",
            "claimRewards()": "infinite",
            "claimableAmount(address)": "2647",
            "cost()": "2408",
            "currentWethContractBalance()": "2408",
            "deployedTimestamp()": "2428",
            "discountPercentage()": "2420",
            "getApproved(uint256)": "4793",
            "getBalance()": "285",
            "getElapsedTime(uint256,uint256)": "infinite",
            "getNumberOfTokenHolders()": "2416",
            "getRaribleV2Royalties(uint256)": "infinite",
            "getWethBalance()": "infinite",
            "isAccountOnList(address,bytes32[],bytes32)": "infinite",
            "isApprovedForAll(address,address)": "infinite",
            "maxSupply()": "2362",
            "merkleRootL1()": "2386",
            "merkleRootL1Time()": "2385",
            "merkleRootL2()": "2386",
            "merkleRootL2Time()": "2383",
            "mint(uint256,bytes32[],bytes32[])": "infinite",
            "name()": "infinite",
            "nftType()": "2398",
            "notRevealedUri()": "infinite",
            "owner()": "2399",
            "ownerOf(uint256)": "2607",
            "pause(bool)": "26779",
            "paused()": "2432",
            "renounceOwnership()": "infinite",
            "reveal()": "26600",
            "revealed()": "2377",
            "royaltyInfo(uint256,uint256)": "infinite",
            "safeTransferFrom(address,address,uint256)": "infinite",
            "safeTransferFrom(address,address,uint256,bytes)": "infinite",
            "setApprovalForAll(address,bool)": "infinite",
            "setBaseExtension(string)": "infinite",
            "setBaseURI(string)": "infinite",
            "setCost(uint256)": "24578",
            "setMerkleRootL1(bytes32)": "24599",
            "setMerkleRootL2(bytes32)": "24577",
            "setNotRevealedURI(string)": "infinite",
            "supportsInterface(bytes4)": "infinite",
            "symbol()": "infinite",
            "tokenByIndex(uint256)": "6849",
            "tokenOfOwnerByIndex(address,uint256)": "4993",
            "tokenURI(uint256)": "infinite",
            "totalSupply()": "2360",
            "transferFrom(address,address,uint256)": "infinite",
            "transferOwnership(address)": "infinite",
            "unwrapWeth(uint256)": "infinite",
            "walletOfOwner(address)": "infinite",
            "weth()": "2427",
            "withdrawEth()": "infinite",
            "withdrawWeth()": "infinite"
        },
        "internal": {
            "_afterTokenTransfer(address,address,uint256,uint256)": "infinite",
            "_baseURI()": "infinite",
            "_beforeTokenTransfer(address,address,uint256,uint256)": "infinite",
            "sendToOwner(uint256)": "infinite",
            "setRoyalties(uint256,address payable,uint96)": "infinite"
        }
    }
}